:100000000C9424010C9441010C9441010C94410185
:100010000C9441010C9441010C9441010C94410158
:100020000C9441010C9441010C9441010C94410148
:100030000C9441010C9441010C9441010C94410138
:100040000C9441010C9441010C9441010C94410128
:100050000C9441010C9441010C9441010C94410118
:100060000C9441010C944101000000000000005F6D
:1000700000000007000700147F147F14242A7F2A41
:10008000122313086462364955225000050300000C
:10009000001C2241000041221C0014083E081408E4
:1000A000083E0808005030000008080808080060F2
:1000B00060000020100804023E5149453E00427F86
:1000C000400042615149462141454B311814127F8D
:1000D0001027454545393C4A494930017109050316
:1000E0003649494936064949291E0036360000007E
:1000F0005636000008142241001414141414004150
:100100002214080201510906324979413E7E11113B
:10011000117E7F494949363E414141227F4141227A
:100120001C7F494949417F090909013E4149497AF2
:100130007F0808087F00417F41002040413F017F48
:10014000081422417F404040407F020C027F7F0420
:1001500008107F3E4141413E7F090909063E415159
:10016000215E7F09192946464949493101017F012C
:10017000013F4040403F1F2040201F3F4038403F4C
:100180006314081463070870080761514945430068
:100190007F41410002040810200041417F00040219
:1001A0000102044040404040000102040020545439
:1001B00054787F48444438384444442038444448C0
:1001C0007F3854545418087E0901020C5252523E92
:1001D0007F0804047800447D40002040443D007FB7
:1001E0001028440000417F40007C041804787C08FB
:1001F00004047838444444387C1414140808141453
:10020000187C7C080404084854545420043F44409B
:10021000203C4040207C1C2040201C3C4030403C86
:1002200044281028440C5050503C4464544C440022
:100230000836410000007F00000041360800100829
:10024000081008000000000011241FBECFEFD8E006
:10025000DEBFCDBF11E0A0E0B1E0EEE9FCE002C0FE
:1002600005900D92A431B107D9F723E0A4E1B1E0E4
:1002700001C01D92A235B207E1F70E94A8040C94B8
:100280004D060C940000EF92FF920F931F93CF93B3
:10029000DF938AE0E82E81E0F82E15E10DE2C7E059
:1002A000D0E0F701408150E00C2E02C055954795F3
:1002B0000A94E2F74170612F802F8C1B0E949C03EF
:1002C000219778F79FEFE91AF90A1F5F1A3139F77A
:1002D000DF91CF911F910F91FF90EF9008955F9262
:1002E0006F927F928F929F92AF92BF92CF92DF9246
:1002F000EF92FF920F931F93CF93DF936C018B01CB
:10030000D0E0C0E0460187E0E82EF12C5801AC0EA9
:10031000BD1EFE01ED5FFE4F3F015C2E500E84E5D9
:100320008816910494F490E3A916B10474F4F301CF
:10033000408150E00E2C02C0559547950A94E2F793
:100340004170652D882D0E949C03F1E0EF1AF108A1
:100350008FEF881A980A9FEFE916F90601F72196A0
:10036000C730D10579F6DF91CF911F910F91FF90A2
:10037000EF90DF90CF90BF90AF909F908F907F9045
:100380006F905F9008958F929F92AF92BF92CF929D
:10039000DF92EF92FF920F931F93CF93DF937C0135
:1003A00093E5992EB12CA12CAE14BF046CF0DF9113
:1003B000CF911F910F91FF90EF90DF90CF90BF9062
:1003C000AF909F908F900895D0E0C0E082E0882E9B
:1003D000890C02E010E0CE0180509F4F6C01F601C5
:1003E000408150E0002E02C0559547950A94E2F7EF
:1003F00041706C2F882D801B0E949C0301501109B5
:1004000070F72196C330D10521F79FEFA91AB90AD9
:10041000ECEF9E0EC9CF0F931F93CF9303E510E02F
:10042000081B190BC0E040E06C2F802F0E949C033A
:1004300040E06C2F802F0E949C0340E06C2F802FA7
:100440000E949C03CF5FC33071F7CF911F910F9132
:100450000895AF92BF92CF92DF92EF92FF920F93E7
:100460001F93CF93DF937C01EB015B0187E0A80E24
:10047000B11C670188E0C80ED11C87010435110545
:1004800044F4C033D1052CF440E06C2F802F0E943F
:100490009C030F5F1F4F0C151D0581F72196CA1590
:1004A000DB0559F7DF91CF911F910F91FF90EF90EE
:1004B000DF90CF90BF90AF900895CF92DF92EF92F0
:1004C000FF920F931F93CF93DF93EC017B018A017F
:1004D00069016A817B81888199810E9429028881D2
:1004E00099818E159F050CF045C0019699838883EC
:1004F0008A819B81801791070CF042C001969B83F3
:100500008A83888199818E159F050CF43FC024E071
:10051000E20EF11CE816F906CCF18A819B81801766
:100520009107A4F10C5F1F4F081719077CF1F60122
:10053000808191810197918380830E949A056FE465
:1005400070E00E940A05998388830E949A056BE2F5
:1005500070E00E940A059B838A83F6018081918165
:10056000DF91CF911F910F91FF90EF90DF90CF908F
:100570000C940B02E816F9060CF0BACF0197B6CF2F
:10058000081719070CF0BDCF0197B9CFDF91CF91B4
:100590001F910F91FF90EF90DF90CF9008950F93F0
:1005A0001F93CF93DF93EC018B01FB01808191813D
:1005B0000497CCF40E949A059C0164E070E00E94CC
:1005C0000A058230910561F18330910591F1237024
:1005D0003327232B69F00197B1F0F80180819181D5
:1005E000019691838083DF91CF911F910F910895A0
:1005F0000E949A056FE470E00E940A05998388833F
:100600001B821A82EACF0E949A056FE470E00E9472
:100610000A05998388838BE290E09B838A83DDCFF0
:10062000198218820E949A056BE270E00E940A0506
:10063000F4CF8FE490E099838883F4CF29986623E0
:10064000A9F02B9A27E030E090E0AC01022E02C026
:10065000559547950A94E2F740FF0AC02C9A2D9AC7
:100660002D982150310988F7299A08952B98EACFBF
:100670002C98F5CF60E00C941E03CF93DF93219A62
:10068000229A239A249A259A2A9A299A8FE39CE9F6
:100690000197F1F700C000002A989FEF2AE683E057
:1006A000915020408040E1F700C000002A9A29982C
:1006B00081E20E943A0383E10E943A0386E00E94AD
:1006C0003A0382EC0E943A0380E20E943A0389E0F6
:1006D0000E943A0380E80E943A0380E40E943A03B1
:1006E000C8EFD1E061E080E00E941E032197D1F7BE
:1006F00088E00E943A038CE0DF91CF910C943A039A
:1007000080E80E943A0380E40E943A0310924C036E
:1007100010924D03E4E5F1E088EF91E0DF019C01E8
:100720001D9221503040E1F70895811103C084E209
:100730000C943A0380E2FCCF962F96959695969569
:10074000E82FF0E084E5989FE00DF11D1124EC5AAC
:10075000FE4F2081677081E090E001C0880F6A95AC
:10076000EAF7442319F0282B208308958095282345
:10077000FBCF8F929F92AF92BF92DF92EF92FF9248
:100780000F931F93CF93DF9300D000D00F92CDB77C
:10079000DEB7E82FF62E80320CF44DC0E05285E033
:1007A000E802B001112468597F4F45E050E0CE01C6
:1007B00001960E94AA058E010F5F1F4F95E0F99EDA
:1007C0005001112487E0F89E40011124E12CEA1425
:1007D0001B040CF463C080914C038F5F9F2D990F15
:1007E000990F9F0D890F80934C03843558F08091A9
:1007F0004D0310924C038F5F97E0F99E800D1124FA
:1008000080934D0380914D03803320F010924C0370
:1008100010924D030F900F900F900F900F90DF915B
:10082000CF911F910F91FF90EF90DF90BF90AF900D
:100830009F908F900895EE0FFF0BEC5EFE4F0081AE
:1008400011810115110509F0B9CF45E050E068E6C6
:1008500070E0ADCFED0D5E0D8E2D6F2D0E94FE046C
:10086000D801A80FB11D2C9130E08D2D0E94FE04FF
:1008700002C0359527958A95E2F741E020FF40E0D8
:100880006E2F852F0E949C03D394E0914D035091CD
:100890004C03D8141904F4F2E39499CFD12CF5CF7A
:1008A000E82F803234F4EE0FFF0BEC5EFE4F7183C5
:1008B000608308951F93CF93DF93162FEC018991E6
:1008C000811104C0DF91CF911F910895612F0E9483
:1008D000B903F5CF80934C0360934D030895CF93F4
:1008E000DF9380E80E943A0380E40E943A03C4E563
:1008F000D1E061E089910E941E0383E0CC34D807E7
:10090000C1F7DF91CF910895A4E0B0E0EAE8F4E008
:100910000C94F505FC010FB6F89480914E0390916C
:100920004F03A0915003B091510389839A83AB8305
:10093000BC830FBE309721F080839183A283B38361
:1009400069817A818B819C812496E2E00C94110666
:10095000CDB7DEB72C970FB6F894DEBF0FBECDBF74
:100960000E943D030E94800390E080E00E94840486
:1009700069877A878B879C87CB010E949F051886A1
:100980001F8283E090E09E838D8304E610E00E9446
:100990009A05B8010E940A0544973CF4BE01695FBC
:1009A0007F4FCE0101960E94CF029E012B5F3F4FE9
:1009B00045E150E067E270E0CE0101960E945D02E1
:1009C0006B817C8189819A810E946F0170E060E077
:1009D00090E080E00E946F010E9443018D819E8122
:1009E0000E94C3010E946F042FEF80E792E0215024
:1009F00080409040E1F700C00000C9CF991B79E02A
:100A000004C0991F961708F0961B881F7A95C9F79E
:100A10008095089597FB072E16F4009407D077FD74
:100A200009D00E941E0507FC05D03EF490958195E3
:100A30009F4F0895709561957F4F0895AA1BBB1B2A
:100A400051E107C0AA1FBB1FA617B70710F0A61BCE
:100A5000B70B881F991F5A95A9F780959095BC01EF
:100A6000CD010895CF92DF92EF92FF92CF93DF9363
:100A7000CDB7DEB72A970FB6F894DEBF0FBECDBF55
:100A800089879A87A985BA852D913D914D915C9171
:100A900029833A834B835C83232B242B252B41F41E
:100AA00024E239ED4BE557E029833A834B835C839D
:100AB00069817A818B819C812DE133EF41E050E0A7
:100AC0000E94B30569017A01A7EAB1E49B01AC0178
:100AD0000E94D20569837A838B839C83ACEEB4EF4A
:100AE000A70196010E94E0059B01AC0189819A81D2
:100AF000AB81BC81820F931FA41FB51FB7FF03C03A
:100B00000197A109B048E985FA8580839183A28382
:100B1000B3839F772A960FB6F894DEBF0FBECDBF82
:100B2000DF91CF91FF90EF90DF90CF9008950E94DA
:100B3000320508958FE091E00E9432050895B0E0FB
:100B4000A0E080930F0190931001A0931101B09346
:100B500012010895FB01DC0102C005900D92415085
:100B60005040D8F70895052E97FB1EF400940E947C
:100B7000CA0557FD07D00E941C0607FC03D04EF49F
:100B80000C94CA0550954095309521953F4F4F4F95
:100B90005F4F089590958095709561957F4F8F4F29
:100BA0009F4F08950E943E06A59F900DB49F900D03
:100BB000A49F800D911D11240895B7FF0C94D205B8
:100BC0000E94D205821B930B08952F923F924F9261
:100BD0005F926F927F928F929F92AF92BF92CF92CD
:100BE000DF92EF92FF920F931F93CF93DF93CDB7D6
:100BF000DEB7CA1BDB0B0FB6F894DEBF0FBECDBF4E
:100C000009942A88398848885F846E847D848C841E
:100C10009B84AA84B984C884DF80EE80FD800C8127
:100C20001B81AA81B981CE0FD11D0FB6F894DEBF0A
:100C30000FBECDBFED010895A1E21A2EAA1BBB1B6A
:100C4000FD010DC0AA1FBB1FEE1FFF1FA217B30798
:100C5000E407F50720F0A21BB30BE40BF50B661FAE
:100C6000771F881F991F1A9469F760957095809572
:100C700090959B01AC01BD01CF010895A29FB001E9
:100C8000B39FC001A39F700D811D1124911DB29FC0
:0E0C9000700D811D1124911D0895F894FFCF61
:100C9E00050702183C66E7663C1818187E99240171
:040CAE000000000042
:00000001FF
