:100000000C9424010C9441010C9441010C94410185
:100010000C9441010C9441010C9441010C94410158
:100020000C9441010C9441010C9441010C94410148
:100030000C9441010C9441010C9441010C94410138
:100040000C9441010C9441010C9441010C94410128
:100050000C9441010C9441010C9441010C94410118
:100060000C9441010C944101000000000000005F6D
:1000700000000007000700147F147F14242A7F2A41
:10008000122313086462364955225000050300000C
:10009000001C2241000041221C0014083E081408E4
:1000A000083E0808005030000008080808080060F2
:1000B00060000020100804023E5149453E00427F86
:1000C000400042615149462141454B311814127F8D
:1000D0001027454545393C4A494930017109050316
:1000E0003649494936064949291E0036360000007E
:1000F0005636000008142241001414141414004150
:100100002214080201510906324979413E7E11113B
:10011000117E7F494949363E414141227F4141227A
:100120001C7F494949417F090909013E4149497AF2
:100130007F0808087F00417F41002040413F017F48
:10014000081422417F404040407F020C027F7F0420
:1001500008107F3E4141413E7F090909063E415159
:10016000215E7F09192946464949493101017F012C
:10017000013F4040403F1F2040201F3F4038403F4C
:100180006314081463070870080761514945430068
:100190007F41410002040810200041417F00040219
:1001A0000102044040404040000102040020545439
:1001B00054787F48444438384444442038444448C0
:1001C0007F3854545418087E0901020C5252523E92
:1001D0007F0804047800447D40002040443D007FB7
:1001E0001028440000417F40007C041804787C08FB
:1001F00004047838444444387C1414140808141453
:10020000187C7C080404084854545420043F44409B
:10021000203C4040207C1C2040201C3C4030403C86
:1002200044281028440C5050503C4464544C440022
:100230000836410000007F00000041360800100829
:10024000081008000000000011241FBECFEFD8E006
:10025000DEBFCDBF11E0A0E0B1E0E8EFFBE002C0FF
:1002600005900D92AA32B107D9F723E0AAE2B1E0D6
:1002700001C01D92A836B207E1F70E9495040C94C4
:10028000FA050C940000EF92FF920F931F93CF9307
:10029000DF938AE0E82E81E0F82ED5E1C6E207E0A0
:1002A00010E0F701408150E0002E02C055954795BF
:1002B0000A94E2F741706D2F8C2F0E948F0301503A
:1002C0001109CF5FCE3269F7FFEFEF1AFF0ADF5F48
:1002D000DA3121F7DF91CF911F910F91FF90EF90CD
:1002E00008958F929F92AF92BF92CF92DF92EF923A
:1002F000FF920F931F93CF93DF936C01EB0183E089
:10030000882E81E0982E5B0187E0A80EB11C760153
:1003100007E010E0E4E5EE16F1048CF4C033D105FB
:1003200074F4F401408150E0002E02C055954795C9
:100330000A94E2F741706C2F8E2D0E948F030150BA
:100340001109FFEFEF1AFF0A0F3F8FEF180711F7A0
:100350002196EFEF8E1A9E0ACA15DB05C1F6DF91D2
:10036000CF911F910F91FF90EF90DF90CF90BF90B2
:10037000AF909F908F9008959F92AF92BF92CF922F
:10038000DF92EF92FF920F931F93CF93DF937C0145
:1003900080E5A82EC12CD12CCE14DF0434F500E06A
:1003A00011E0B12C9A2CC2E0D0E0F801408150E07D
:1003B0000C2E02C0559547950A94E2F741706B2DBB
:1003C000892D0E948F0321979394CF3F8FEFD807F9
:1003D00061F70F5F1F4FB394E3E0BE12E3CFFFEF6F
:1003E000CF1ADF0A8CEFA80ED7CFDF91CF911F91E4
:1003F0000F91FF90EF90DF90CF90BF90AF909F90C4
:1004000008950F931F93CF93DF932DEFAC01240337
:10041000C001259F900D11248C01005B1F4FD0E07F
:10042000C0E040E06D2F8C2F800F0E948F03CF5FC4
:10043000C330B9F7DF5FD33099F7DF91CF911F91C8
:100440000F910895AF92BF92CF92DF92EF92FF92F9
:100450000F931F93CF93DF937C01EB016B0187E038
:10046000C80ED11C570188E0A80EB11C87010435C5
:10047000110544F4C033D1052CF440E06C2F802FDB
:100480000E948F030F5F1F4F0A151B0581F72196EE
:10049000CC16DD0659F7DF91CF911F910F91FF9098
:1004A000EF90DF90CF90BF90AF900895CF92DF9202
:1004B000EF92FF920F931F93CF93DF93EC016B01A9
:1004C0008A0179016A817B81888199810E94220257
:1004D000888199818C159D0514F4019604C0C81675
:1004E000D9061CF40197998388838A819B818017A0
:1004F000910714F4019604C0081719071CF401971A
:100500009B838A83888199818C159D055CF124E009
:10051000C20ED11CC816D9062CF18A819B81801786
:10052000910704F10C5F1F4F08171907DCF0F70162
:10053000808191810197918380830E947E056FE481
:1005400070E00E940A05998388830E947E056BE211
:1005500070E00E940A059B838A83F7018081918164
:100560000E940102FFEF26E781E0F1502040804029
:10057000E1F700C00000DF91CF911F910F91FF9034
:10058000EF90DF90CF9008950F931F93CF93DF9359
:10059000FB012081318124303105F4F58B01EC0120
:1005A0000E947E0564E070E00E940A05813091059A
:1005B000C1F06CF4892B51F50E947E056FE470E068
:1005C0000E940A05998388831B821A821FC0823089
:1005D000910591F00397D1F48FE490E0998388839B
:1005E0000DC00E947E056FE470E00E940A059983A9
:1005F00088838BE290E008C0198218820E947E05F1
:100600006BE270E00E940A059B838A83F801808177
:100610009181019691838083DF91CF911F910F91FA
:1006200008952998662311F02B9A01C02B9827E092
:1006300030E090E0AC01022E02C0559547950A9437
:10064000E2F740FF02C02C9A01C02C982D9A2D98F9
:100650002150310978F7299A089560E00C9411032C
:10066000CF93DF93219A229A239A249A259A2A9A41
:10067000299A8FE39CE90197F1F700C000002A98BE
:100680009FEF2AE683E0915020408040E1F700C0D0
:1006900000002A9A299881E20E942D0383E10E949A
:1006A0002D0386E00E942D0382EC0E942D0380E240
:1006B0000E942D0389E00E942D0380E80E942D03F3
:1006C00080E40E942D03C8EFD1E061E080E00E9449
:1006D00011032197D1F788E00E942D038CE0DF9170
:1006E000CF910C942D0380E80E942D0380E40E949A
:1006F0002D03109222031092230388EF91E0EAE287
:10070000F1E0DF019C011D9221503040E1F7089596
:10071000811102C084E201C080E20C942D03962F67
:10072000969596959695E82FF0E084E5989FE00DD4
:10073000F11D1124E65DFE4F677081E090E001C07D
:10074000880F6A95EAF7442319F09081892B03C03A
:10075000809590818923808308958F929F92AF9294
:10076000BF92DF92EF92FF920F931F93CF93DF938D
:1007700000D000D01F92CDB7DEB7F62E282F082E5E
:10078000000C330B80326CF02052310985E0829FDF
:10079000B001839F700D112468597F4F45E050E0F0
:1007A0000EC0220F331FF901EC5DFC4F0081118157
:1007B0000115110559F445E050E068E670E0CE01FE
:1007C00001960E948E058E010F5F1F4F85E0F89EF7
:1007D0005001112497E0F99E40011124D12C8D2D58
:1007E00090E08A159B0544F5E12C8E2D90E088154C
:1007F000990504F58D2D6F2D0E94FE04F801E80F78
:10080000F11D208130E08E2D0E94FE0402C035953E
:1008100027958A95E2F760912303809122036E0D5C
:1008200020FF02C041E001C040E08D0D0E948F0317
:10083000E394DBCFD394D3CF8091220391E0980F40
:100840008F2D880F880F8F0D890F843518F48093B2
:1008500022030BC010922203809123038F5F97E045
:10086000F99E800D1124809323038091230380330C
:1008700020F010922203109223030F900F900F90FC
:100880000F900F90DF91CF911F910F91FF90EF90FC
:10089000DF90BF90AF909F908F90089580323CF48E
:1008A000E82FEE0FFF0BEC5DFC4F71836083089522
:1008B0001F93CF93DF93162FEC018991882321F0AA
:1008C000612F0E94AD03F9CFDF91CF911F91089561
:1008D00080932203609323030895CF93DF9380E8EE
:1008E0000E942D0380E40E942D03CAE2D1E061E062
:1008F00089910E94110383E0C232D807C1F7DF91CA
:10090000CF910895FC010FB6F89460916403709143
:10091000650380916603909167030FBE309721F0C5
:10092000608371838283938308950F931F93CF9382
:10093000DF93CDB7DEB728970FB6F894DEBF0FBEB2
:10094000CDBF0E9430030E94730380E090E00E94BC
:100950008204CB010E94830518861F8283E090E009
:100960009E838D8304E610E00E947E05B8010E94FC
:100970000A0544973CF4BE01695F7F4FCE010196A2
:100980000E94C4029E012B5F3F4F45E150E067E2A9
:1009900070E0CE0101960E9456026B817C818981B4
:1009A0009A810E94710160E070E080E090E00E9416
:1009B00071010E9443018D819E810E94BC010E94B1
:1009C0006D048D819E81892B39F08FE19EE4019722
:1009D000F1F700C00000C8CF61E083E191E00E9420
:1009E000580481E090E028960FB6F894DEBF0FBE61
:1009F000CDBFDF91CF911F910F910895991B79E0A1
:100A000004C0991F961708F0961B881F7A95C9F79E
:100A10008095089597FB072E16F4009407D077FD74
:100A200009D00E941E0507FC05D03EF490958195E3
:100A30009F4F0895709561957F4F0895AA1BBB1B2A
:100A400051E107C0AA1FBB1FA617B70710F0A61BCE
:100A5000B70B881F991F5A95A9F780959095BC01EF
:100A6000CD0108958F929F92AF92BF92CF92DF9265
:100A7000EF92FF92CF93DF93EC01688179818A81B5
:100A80009B81611571058105910521F464E279ED81
:100A90008BE597E02DE133EF41E050E00E949705B0
:100AA00049015A019B01AC01A7EAB1E40E94B605D5
:100AB0006B017C01ACEEB4EFA50194010E94C4056A
:100AC000DC01CB018C0D9D1DAE1DBF1DB7FF03C00A
:100AD0000197A109B04888839983AA83BB839F7734
:100AE000DF91CF91FF90EF90DF90CF90BF90AF90CC
:100AF0009F908F9008950E94320508958FE091E0B5
:100B00000E9432050895A0E0B0E080930F01909319
:100B10001001A0931101B09312010895FB01DC01B3
:100B200002C005900D9241505040D8F70895052E0F
:100B300097FB1EF400940E94AE0557FD07D00E945B
:100B4000C90507FC03D04EF40C94AE0550954095B2
:100B5000309521953F4F4F4F5F4F08959095809569
:100B6000709561957F4F8F4F9F4F08950E94EB05C1
:100B7000A59F900DB49F900DA49F800D911D1124F1
:100B80000895B7FF0C94B6050E94B605821B930B1F
:100B90000895A1E21A2EAA1BBB1BFD010DC0AA1FBE
:100BA000BB1FEE1FFF1FA217B307E407F50720F0D6
:100BB000A21BB30BE40BF50B661F771F881F991F51
:100BC0001A9469F760957095809590959B01AC019A
:100BD000BD01CF010895A29FB001B39FC001A39FA3
:100BE000700D811D1124911DB29F700D811D112466
:080BF000911D0895F894FFCF58
:100BF800050702183C66E7663C1818187E99240118
:100C0800000000414341424F552042524F5448454D
:0A0C1800522044455349535445004F
:00000001FF
