:100000000C9424010C9441010C9441010C94410185
:100010000C9441010C9441010C9441010C94410158
:100020000C9441010C9441010C9441010C94410148
:100030000C9441010C9441010C9441010C94410138
:100040000C9441010C9441010C9441010C94410128
:100050000C9441010C9441010C9441010C94410118
:100060000C9441010C944101000000000000005F6D
:1000700000000007000700147F147F14242A7F2A41
:10008000122313086462364955225000050300000C
:10009000001C2241000041221C0014083E081408E4
:1000A000083E0808005030000008080808080060F2
:1000B00060000020100804023E5149453E00427F86
:1000C000400042615149462141454B311814127F8D
:1000D0001027454545393C4A494930017109050316
:1000E0003649494936064949291E0036360000007E
:1000F0005636000008142241001414141414004150
:100100002214080201510906324979413E7E11113B
:10011000117E7F494949363E414141227F4141227A
:100120001C7F494949417F090909013E4149497AF2
:100130007F0808087F00417F41002040413F017F48
:10014000081422417F404040407F020C027F7F0420
:1001500008107F3E4141413E7F090909063E415159
:10016000215E7F09192946464949493101017F012C
:10017000013F4040403F1F2040201F3F4038403F4C
:100180006314081463070870080761514945430068
:100190007F41410002040810200041417F00040219
:1001A0000102044040404040000102040020545439
:1001B00054787F48444438384444442038444448C0
:1001C0007F3854545418087E0901020C5252523E92
:1001D0007F0804047800447D40002040443D007FB7
:1001E0001028440000417F40007C041804787C08FB
:1001F00004047838444444387C1414140808141453
:10020000187C7C080404084854545420043F44409B
:10021000203C4040207C1C2040201C3C4030403C86
:1002200044281028440C5050503C4464544C440022
:100230000836410000007F00000041360800100829
:10024000081008000000000011241FBECFEFD8E006
:10025000DEBFCDBF11E0A0E0B1E0EEEEF2E102C002
:1002600005900D92A235B107D9F723E0A2E5B1E0E0
:1002700001C01D92A839B207E1F70E9465070C94EE
:1002800075090C940000EF92FF920F931F93CF9388
:10029000DF9386E2E82E81E0F82E15E10DE2C7E05B
:1002A000D0E0F701408150E00C2E02C055954795F3
:1002B0000A94E2F74170612F802F8C1B0E9459062F
:1002C000219778F79FEFE91AF90A1F5F1A3139F77A
:1002D000DF91CF911F910F91FF90EF9008955F9262
:1002E0006F927F928F929F92AF92BF92CF92DF9246
:1002F000EF92FF920F931F93CF93DF936C018B01CB
:10030000D0E0C0E0460187E0E82EF12C5801AC0EA9
:10031000BD1EFE01E15EFE4F3F015C2E500E84E5E6
:100320008816910494F490E3A916B10474F4F301CF
:10033000408150E00E2C02C0559547950A94E2F793
:100340004170652D882D0E945906F1E0EF1AF108E1
:100350008FEF881A980A9FEFE916F90601F72196A0
:10036000C730D10579F6DF91CF911F910F91FF90A2
:10037000EF90DF90CF90BF90AF909F908F907F9045
:100380006F905F900895AF92BF92CF92DF92EF92FD
:10039000FF920F931F93CF93DF937C01EB015B01DF
:1003A00087E0A80EB11C670188E0C80ED11C870148
:1003B0000435110544F4C033D1052CF440E06C2F12
:1003C000802F0E9459060F5F1F4F0C151D0581F7E6
:1003D0002196CA15DB0559F7DF91CF911F910F9137
:1003E000FF90EF90DF90CF90BF90AF9008958F92E5
:1003F0009F92AF92BF92CF92DF92EF92FF920F93B4
:100400001F93CF93DF937C0190E5992EB12CA12C03
:10041000AE14BF046CF0DF91CF911F910F91FF904C
:10042000EF90DF90CF90BF90AF909F908F90089506
:10043000D0E0C0E082E0882E890C02E010E0CE011E
:10044000845E9E4F6C01F601408150E0002E02C098
:10045000559547950A94E2F741706C2F882D801BC3
:100460000E9459060150110970F72196C330D10539
:1004700021F79FEFA91AB90AECEF9E0EC9CFEF92B0
:10048000FF920F931F93CF93DF93C4E1D0E0C81B7B
:10049000D90BCC0FDD1FCC0FDD1F00E0FC2EEC2EA6
:1004A00083E0E80E1C2F40E0602F812F0E94590648
:1004B0001F5F1E11F8CF0F5F0330A1F740E064E02B
:1004C00084E08F0DDF91CF911F910F91FF90EF90FE
:1004D0000C945906FF920F931F93CF93DF938C01D7
:1004E000EB01888199810497D4F40E94C2089C0191
:1004F00064E070E00E9432088230910509F453C034
:100500008330910509F46CC023703327232B69F0E5
:10051000019749F188819981019699838883DF91B8
:10052000CF911F910F91FF9008950E94C2084881BA
:10053000598126E0249FF001259FF00D1124E00F42
:10054000F11F6FE470E00E943208918380838881FC
:100550009981289FF001299FF00D1124E00FF11FD0
:1005600013821282D7CF0E94C2084881598126E0A7
:10057000249FF001259FF00D1124E00FF11F6FE47F
:1005800070E00E9432089183808388819981289F3E
:10059000F001299FF00D1124E00FF11F8BE290E094
:1005A00093838283B7CF8881998136E0F32EF89EBA
:1005B000F001F99EF00D1124E00FF11F118210825D
:1005C0000E94C20828813981F29EF001F39EF00D4D
:1005D0001124E00FF11F6BE270E00E943208E0CFBF
:1005E0008881998126E0F22EF89EF001F99EF00DA7
:1005F0001124E00FF11F8FE490E0918380830E942B
:10060000C20848815981F49E9001F59E300D112455
:10061000020F131F6BE270E00E943208F801C0CF96
:100620004D9B0BC02FEF80E792E02150804090401F
:10063000E1F700C0000087E508954C9B0BC02FEF49
:1006400080E792E0215080409040E1F700C0000038
:1006500083E508954E9B0BC02FEF80E792E0215079
:1006600080409040E1F700C0000081E408954F9B76
:100670000BC02FEF80E792E0215080409040E1F7DF
:1006800000C0000084E4089580E00895AF92BF9216
:10069000CF92DF92EF92FF920F931F93CF93DF934E
:1006A0005C01F12CE12C86E0C82ED12C10E000E09A
:1006B000F50124813581F1E02E303F0721F081E002
:1006C0002730380771F52E0D3F1DF901C081D0E0AC
:1006D000C601801B910B02C0D595C7958A95E2F79C
:1006E000C170DD27F50162816E0D80814C2F800F76
:1006F0000E9459060F5F1F4F07301105C9F6FFEF23
:10070000EF1AFF0A87E0E816F10481F6DF91CF9136
:100710001F910F91FF90EF90DF90CF90BF90AF901F
:100720000895F1E020303F0721F081E025313807BE
:10073000C9F62E0D3F1DF901C081D0E0002E02C088
:10074000D595C7950A94E2F7CBCF0F931F93CF931C
:10075000DF938C01D0E0C0E0F80162816D0F8081F1
:1007600040E08C0F0E945906CF5FC730A9F7DF5FCA
:10077000D73089F7DF91CF911F910F9108950F9393
:100780001F93CF93DF93EC018B010E94A5030230EE
:10079000110581F16CF401151105A1F0013011056D
:1007A000F1F0CE01DF91CF911F910F910C94460390
:1007B00003301105B1F787E290E09983888388E1DF
:1007C00090E013C08AE290E09983888385E190E00D
:1007D0009B838A838A859B859D838C83E2CF87E276
:1007E00090E0998388838CE090E09B838A8388855E
:1007F0009985F2CF8EE190E0E7CFCF93DF93DC01D4
:10080000EA01E881F9812A813B818091540190912C
:10081000550182309105D1F13CF40097E9F0019740
:1008200029F090E080E02FC00397D9F7CD0105961D
:100830008E179F07B4F33696EA17FB0794F3CB01A4
:100840000596821793076CF3245F3F4F81E090E099
:1008500062177307C4F0E5CFAD014B5F5F4F4E17D2
:100860005F078CF03C96AE17BF076CF4AB014B5F93
:100870005F4F421753073CF02A5F3F4F81E090E003
:100880002617370774F2DF91CF910895CD010596B1
:100890008E179F0734F23C96AE17BF0714F6CB01B4
:1008A0000596821793070CF4BCCFE6CF6F927F9228
:1008B0008F929F92AF92BF92CF92DF92EF92FF9270
:1008C0000F931F93CF93DF93EC016B017A015901D2
:1008D00038016A817B81888199810E94C301888166
:1008E00099818C159D050CF045C0019699838883EC
:1008F0008A819B818E159F050CF042C001969B83D7
:100900008A830A811B8188809980A301B801C40170
:100910000E94FD03892BD1F18C149D049CF024E0EE
:10092000C20ED11CC814D9046CF00E151F0554F06A
:1009300084E0E80EF11CE016F10624F081E090E07E
:100940009D838C83FFEF26E781E0F15020408040BB
:10095000E1F700C00000DF91CF911F910F91FF9050
:10096000EF90DF90CF90BF90AF909F908F907F904F
:100970006F900895C816D9060CF0BACF0197B6CF7C
:10098000E816F9060CF0BDCF0197B9CF8C149D0481
:10099000CCF294E0C90ED11CC814D9049CF20E15F7
:1009A0001F0584F2E4E0EE0EF11CE016F10654F2AD
:1009B000F501808191810197918380830E94C20813
:1009C0006FE470E00E943208998388830E94C20815
:1009D0006BE270E00E9432089B838A83F50180817C
:1009E00091810E943F02AECF0E943D066AE08AE0FC
:1009F0000E94270761E08FE291E00E9417070E94A2
:100A00002C072FEF86E791E0215080409040E1F7DE
:100A100000C0000008950E943D0664E18FE00E943E
:100A2000270761E083E491E00E94170761E089E411
:100A300091E00E9417076EE182E20E94270761E0C1
:100A40008EE491E00E9417070E942C072FEF87EA9F
:100A500091E6215080409040E1F700C000000895E9
:100A60006F927F928F929F92AF92BF92CF92DF92BE
:100A7000EF92FF920F931F93CF93DF937C016B0153
:100A8000EA0139010E943D066091540170915501BF
:100A9000C7010E94BF03C7010E9446036091540131
:100AA00070915501C7010E94BF030E94C20862E312
:100AB00070E00E943208449724F4BE01C6010E94EF
:100AC0006A025601912C812C888199818816990699
:100AD00084F150E040E016E0888199814817590779
:100AE0000CF442C070E060E090E080E00E946F0192
:100AF0000E944301F301808191810E94F7010E94CD
:100B00002C07FFEF25EA8EE0F15020408040E1F70E
:100B100000C00000DF91CF911F910F91FF90EF90E7
:100B2000DF90CF90BF90AF909F908F907F906F900D
:100B3000089540915601509157016091580170916C
:100B4000590187019301C5010E945604F501628194
:100B50007381808191810E946F01FFEF8F1A9F0A3C
:100B600026E0A20EB11CB0CF149FC001159F900DBE
:100B700011248C0D9D1DFC0124813581BA01232B8C
:100B800071F44F5F5F4FA8CF26E0FC013696DC0181
:100B900001900D922A95E1F76F5F7F4F06962881AD
:100BA0003981215031096217730774F3398328831F
:100BB00041505109E6CF29986623A9F02B9A27E0E6
:100BC00030E090E0AC01022E02C0559547950A94A2
:100BD000E2F740FF0AC02C9A2D9A2D982150310936
:100BE00088F7299A08952B98EACF2C98F5CF60E0E2
:100BF0000C94DB05CF93DF93219A229A239A249AAF
:100C0000259A2A9A299A8FE39CE90197F1F700C067
:100C100000002A989FEF2AE683E091502040804010
:100C2000E1F700C000002A9A299881E20E94F705A6
:100C300083E10E94F70586E00E94F70582EC0E949E
:100C4000F70580E20E94F70589E00E94F70580E839
:100C50000E94F70580E40E94F705C8EFD1E061E04B
:100C600080E00E94DB052197D1F788E00E94F7051C
:100C70008CE0DF91CF910C94F70580E80E94F70596
:100C800080E40E94F7051092920310929303EAE920
:100C9000F1E088EF91E0DF019C011D92215030408E
:100CA000E1F70895811103C084E20C94F70580E216
:100CB000FCCF962F969596959695E82FF0E084E5D3
:100CC000989FE00DF11D1124E656FE4F20816770BC
:100CD00081E090E001C0880F6A95EAF7442319F09B
:100CE000282B2083089580952823FBCF8F929F92F5
:100CF000AF92BF92DF92EF92FF920F931F93CF9329
:100D0000DF9300D000D00F92CDB7DEB7E82FF62EDC
:100D100080320CF44DC0E05285E0E802B0011124AD
:100D200068597F4F45E050E0CE0101960E94D208FD
:100D30008E010F5F1F4F95E0F99E5001112487E04F
:100D4000F89E40011124E12CEA141B040CF463C04A
:100D5000809192038F5F9F2D990F990F9F0D890F9F
:100D600080939203843558F08091930310929203FC
:100D70008F5F97E0F99E800D1124809393038091FB
:100D80009303803320F010929203109293030F90FC
:100D90000F900F900F900F90DF91CF911F910F91B7
:100DA000FF90EF90DF90BF90AF909F908F9008954D
:100DB000EE0FFF0BE65AFE4F008111810115110560
:100DC00009F0B9CF45E050E068E670E0ADCFED0D39
:100DD0005E0D8E2D6F2D0E942608D801A80FB11D23
:100DE0002C9130E08D2D0E94260802C03595279564
:100DF0008A95E2F741E020FF40E06E2F852F0E94A8
:100E00005906D394E091930350919203D814190496
:100E1000F4F2E39499CFD12CF5CFE82F803234F45B
:100E2000EE0FFF0BE65AFE4F7183608308951F9308
:100E3000CF93DF93162FEC018991811104C0DF91CC
:100E4000CF911F910895612F0E947606F5CF809370
:100E50009203609393030895CF93DF9380E80E94F9
:100E6000F70580E40E94F705CAE9D1E061E08991C5
:100E70000E94DB0583E0C239D807C1F7DF91CF912B
:100E80000895A4E0B0E0E7E4F7E00C941D09FC014C
:100E90000FB6F8948091940390919503A0919603D6
:100EA000B091970389839A83AB83BC830FBE30973D
:100EB00021F080839183A283B38369817A818B81BE
:100EC0009C812496E2E00C943909CDB7DEB7AE9749
:100ED0000FB6F894DEBF0FBECDBF0E94FA050E9488
:100EE0003D068AB18F708AB990E080E00E94410788
:100EF0006BA77CA78DA79EA7CB010E94C7081AA647
:100F000019A683E090E098A78FA31EA21DA288E2F5
:100F100090E09A8F898F8CE190E09C8F8B8F85E198
:100F200091E09E8F8D8F8EE091E098A38F8F87E068
:100F300091E09AA389A380E091E09CA38BA31092F7
:100F400053011092520187E2E82EF12C95E1C92E4F
:100F5000D12C23E0A22EB12C01E010E032E0832E50
:100F6000912CF0925901E0925801D0925701C09211
:100F700056018091520190915301892B11F40E94E6
:100F8000F4040E941003882311F1833509F447C04B
:100F90005CF4813409F448C0843409F44AC01092E6
:100FA0005301109252010AC08735C9F710935501B9
:100FB0000093540110935301009352012FEF86E7E1
:100FC00091E0215080409040E1F700C00000809106
:100FD000520190915301019789F59E01295D3F4F80
:100FE000AE01475D5F4FBE016F5F7F4FCE014996F7
:100FF0000E9430058FA198A5892B01F582E090E031
:1010000090935301809352010E940B0581E090E080
:10101000AE960FB6F894DEBF0FBECDBF0895B09266
:101020005501A0925401C6CF90925501809254016F
:10103000C1CF1092550110925401BCCF8091520142
:1010400090915301029709F08CCFDECF991B79E084
:1010500004C0991F961708F0961B881F7A95C9F748
:101060008095089597FB072E16F4009407D077FD1E
:1010700009D00E94460807FC05D03EF49095819562
:101080009F4F0895709561957F4F0895AA1BBB1BD4
:1010900051E107C0AA1FBB1FA617B70710F0A61B78
:1010A000B70B881F991F5A95A9F780959095BC0199
:1010B000CD010895CF92DF92EF92FF92CF93DF930D
:1010C000CDB7DEB72A970FB6F894DEBF0FBECDBFFF
:1010D00089879A87A985BA852D913D914D915C911B
:1010E00029833A834B835C83232B242B252B41F4C8
:1010F00024E239ED4BE557E029833A834B835C8347
:1011000069817A818B819C812DE133EF41E050E050
:101110000E94DB0869017A01A7EAB1E49B01AC01F6
:101120000E94FA0869837A838B839C83ACEEB4EFC8
:10113000A70196010E9408099B01AC0189819A814F
:10114000AB81BC81820F931FA41FB51FB7FF03C0E3
:101150000197A109B048E985FA8580839183A2832C
:10116000B3839F772A960FB6F894DEBF0FBECDBF2C
:10117000DF91CF91FF90EF90DF90CF9008950E9484
:101180005A0808958BE291E00E945A080895B0E051
:10119000A0E080932B0190932C01A0932D01B0939C
:1011A0002E010895FB01DC0102C005900D92415013
:1011B0005040D8F70895052E97FB1EF400940E9426
:1011C000F20857FD07D00E94440907FC03D04EF4F3
:1011D0000C94F20850954095309521953F4F4F4F14
:1011E0005F4F089590958095709561957F4F8F4FD3
:1011F0009F4F08950E946609A59F900DB49F900D82
:10120000A49F800D911D11240895B7FF0C94FA0836
:101210000E94FA08821B930B08952F923F924F92DF
:101220005F926F927F928F929F92AF92BF92CF9276
:10123000DF92EF92FF920F931F93CF93DF93CDB77F
:10124000DEB7CA1BDB0B0FB6F894DEBF0FBECDBFF7
:1012500009942A88398848885F846E847D848C84C8
:101260009B84AA84B984C884DF80EE80FD800C81D1
:101270001B81AA81B981CE0FD11D0FB6F894DEBFB4
:101280000FBECDBFED010895A1E21A2EAA1BBB1B14
:10129000FD010DC0AA1FBB1FEE1FFF1FA217B30742
:1012A000E407F50720F0A21BB30BE40BF50B661F58
:1012B000771F881F991F1A9469F76095709580951C
:1012C00090959B01AC01BD01CF010895A29FB00193
:1012D000B39FC001A39F700D811D1124911DB29F6A
:0E12E000700D811D1124911D0895F894FFCF0B
:1012EE00404040404040400000000000007F7F0032
:1012FE0000000000000101010101010105070218B3
:10130E003C66E7663C1818187E99240100000050D0
:10131E0072657373696F6E6520756D612074656398
:10132E006C610047414D4520004F564552004252D8
:02133E004F005E
:00000001FF
