:100000000C9424010C9441010C9441010C94410185
:100010000C9441010C9441010C9441010C94410158
:100020000C9441010C9441010C9441010C94410148
:100030000C9441010C9441010C9441010C94410138
:100040000C9441010C9441010C9441010C94410128
:100050000C9441010C9441010C9441010C94410118
:100060000C9441010C944101000000000000005F6D
:1000700000000007000700147F147F14242A7F2A41
:10008000122313086462364955225000050300000C
:10009000001C2241000041221C0014083E081408E4
:1000A000083E0808005030000008080808080060F2
:1000B00060000020100804023E5149453E00427F86
:1000C000400042615149462141454B311814127F8D
:1000D0001027454545393C4A494930017109050316
:1000E0003649494936064949291E0036360000007E
:1000F0005636000008142241001414141414004150
:100100002214080201510906324979413E7E11113B
:10011000117E7F494949363E414141227F4141227A
:100120001C7F494949417F090909013E4149497AF2
:100130007F0808087F00417F41002040413F017F48
:10014000081422417F404040407F020C027F7F0420
:1001500008107F3E4141413E7F090909063E415159
:10016000215E7F09192946464949493101017F012C
:10017000013F4040403F1F2040201F3F4038403F4C
:100180006314081463070870080761514945430068
:100190007F41410002040810200041417F00040219
:1001A0000102044040404040000102040020545439
:1001B00054787F48444438384444442038444448C0
:1001C0007F3854545418087E0901020C5252523E92
:1001D0007F0804047800447D40002040443D007FB7
:1001E0001028440000417F40007C041804787C08FB
:1001F00004047838444444387C1414140808141453
:10020000187C7C080404084854545420043F44409B
:10021000203C4040207C1C2040201C3C4030403C86
:1002200044281028440C5050503C4464544C440022
:100230000836410000007F00000041360800100829
:10024000081008000000000011241FBECFEFD8E006
:10025000DEBFCDBF11E0A0E0B1E0E0E1F1E102C01E
:1002600005900D92A235B107D9F723E0A2E5B1E0E0
:1002700001C01D92A839B207E1F70E9476060C94DE
:1002800086080C940000EF92FF920F931F93CF9378
:10029000DF9386E2E82E81E0F82E15E10DE2C7E05B
:1002A000D0E0F701408150E00C2E02C055954795F3
:1002B0000A94E2F74170612F802F8C1B0E946A051F
:1002C000219778F79FEFE91AF90A1F5F1A3139F77A
:1002D000DF91CF911F910F91FF90EF9008955F9262
:1002E0006F927F928F929F92AF92BF92CF92DF9246
:1002F000EF92FF920F931F93CF93DF936C018B01CB
:10030000D0E0C0E0460187E0E82EF12C5801AC0EA9
:10031000BD1EFE01E15EFE4F3F015C2E500E84E5E6
:100320008816910494F490E3A916B10474F4F301CF
:10033000408150E00E2C02C0559547950A94E2F793
:100340004170652D882D0E946A05F1E0EF1AF108D1
:100350008FEF881A980A9FEFE916F90601F72196A0
:10036000C730D10579F6DF91CF911F910F91FF90A2
:10037000EF90DF90CF90BF90AF909F908F907F9045
:100380006F905F9008958F929F92AF92BF92CF929D
:10039000DF92EF92FF920F931F93CF93DF937C0135
:1003A00090E5992EB12CA12CAE14BF046CF0DF9116
:1003B000CF911F910F91FF90EF90DF90CF90BF9062
:1003C000AF909F908F900895D0E0C0E082E0882E9B
:1003D000890C02E010E0CE01845E9E4F6C01F601B4
:1003E000408150E0002E02C0559547950A94E2F7EF
:1003F00041706C2F882D801B0E946A0501501109E5
:1004000070F72196C330D10521F79FEFA91AB90AD9
:10041000ECEF9E0EC9CFEF92FF920F931F93CF93F5
:10042000DF93C4E1D0E0C81BD90BCC0FDD1FCC0F8C
:10043000DD1F00E0FC2EEC2E83E0E80E1C2F40E0D8
:10044000602F812F0E946A051F5F1E11F8CF0F5F7A
:100450000330A1F740E064E084E08F0DDF91CF919D
:100460001F910F91FF90EF900C946A05AF92BF928D
:10047000CF92DF92EF92FF920F931F93CF93DF9370
:100480007C01EB015B0187E0A80EB11C670188E0ED
:10049000C80ED11C87010435110544F4C033D105C1
:1004A0002CF440E06C2F802F0E946A050F5F1F4FD5
:1004B0000C151D0581F72196CA15DB0559F7DF914B
:1004C000CF911F910F91FF90EF90DF90CF90BF9051
:1004D000AF900895CF92DF92EF92FF920F931F9308
:1004E000CF93DF93EC017B018A0169016A817B81F3
:1004F000888199810E943602888199818E159F0595
:100500000CF04EC00196998388838A819B81801765
:1005100091070CF04BC001969B838A838881998157
:100520008E159F055CF124E0E20EF11CE816F90639
:100530002CF18A819B818017910704F10C5F1F4F7A
:1005400008171907DCF0F6018081918101979183EA
:1005500080830E94D3076FE470E00E944307998371
:1005600088830E94D3076BE270E00E9443079B835D
:100570008A83F601808191810E940B02FFEF26E7BA
:1005800081E0F15020408040E1F700C00000DF91A1
:10059000CF911F910F91FF90EF90DF90CF90089532
:1005A000E816F9060CF0B1CF0197ADCF081719077F
:1005B0000CF0B4CF0197B0CF0F931F93CF93DF937D
:1005C0008C01EB01888199810497D4F40E94D307B0
:1005D0009C0164E070E00E9443078230910509F4B9
:1005E0004CC08330910509F461C023703327232B5D
:1005F00061F0019729F18881998101969983888317
:10060000DF91CF911F910F9108950E94D307E88148
:10061000F981EE0FFF1FEE0FFF1FE00FF11F6FE4D8
:1006200070E00E94430791838083E881F981EE0F97
:10063000FF1FEE0FFF1FE00FF11F13821282DBCFAF
:100640000E94D307E881F981EE0FFF1FEE0FFF1F15
:10065000E00FF11F6FE470E00E94430791838083F5
:10066000E881F981EE0FFF1FEE0FFF1FE00FF11F72
:100670008BE290E093838283BECFE881F981EE0F15
:10068000FF1FEE0FFF1FE00FF11F118210820E946B
:10069000D307E881F981EE0FFF1FEE0FFF1FE00F78
:1006A000F11F6BE270E00E944307E4CFE881F9811B
:1006B000EE0FFF1FEE0FFF1FE00FF11F8FE490E022
:1006C000918380830E94D30728813981220F331FB1
:1006D000220F331F020F131F6BE270E00E944307CB
:1006E000F801C8CF4D9B08C0189B13C04E9B1EC07D
:1006F0004F9B29C080E008952FEF80E792E02150C2
:1007000080409040E1F700C000004D99EDCF87E5B3
:1007100008952FEF80E792E0215080409040E1F76C
:1007200000C000001899E2CF83E508952FEF80E71D
:1007300092E0215080409040E1F700C000004E99C7
:10074000D7CF81E408952FEF80E792E021508040D9
:100750009040E1F700C000004F99CCCF84E40895A9
:10076000DF92EF92FF920F931F93CF93DF937C0161
:1007700010E000E086E0D82EC6E0D0E0D701149665
:10078000ED91FC91E00FF11F408150E00C2E02C072
:10079000559547950A94E2F741705527F701628114
:1007A000600F9D2D9C1B8081890F0E946A052197F7
:1007B00028F70F5F1F4F07301105F1F6DF91CF913A
:1007C0001F910F91FF90EF90DF9008950F931F936B
:1007D000CF93DF938C01D0E0C0E0F80162816D0F10
:1007E000808140E08C0F0E946A05CF5FC730A9F777
:1007F000DF5FD73089F7DF91CF911F910F91089577
:100800000F931F93CF93DF93EC018B010E94E603BC
:1008100002301105A1F16CF401151105C1F0013090
:10082000110501F1CE01DF91CF911F910F910C9431
:10083000B00303301105B1F78A859B859D838C83B6
:100840008AE290E0998388838EE090E015C08E81E3
:100850009F819D838C8384E390E09983888388E1E2
:1008600090E00AC0888599859D838C838AE290E018
:100870009983888382E290E09B838A83D3CF8C859F
:100880009D859D838C8380E290E0E7CF0E944E059A
:100890006AE08AE00E94380661E08FE291E00E94FF
:1008A00028060E943D062FEF86E791E02150804008
:1008B0009040E1F700C0000008950E944E0564E1F9
:1008C0008FE00E94380661E083E491E00E942806F0
:1008D00061E089E491E00E9428066EE182E20E94D4
:1008E000380661E08EE491E00E9428060E943D06F1
:1008F0002FEF87EA91E6215080409040E1F700C059
:1009000000000895CF92DF92EF92FF920F931F9312
:10091000CF93DF938C01EB016A0179010E944E05B0
:100920006091540170915501C8010E940004C801F2
:100930000E94B0036091540170915501C8010E945A
:1009400000040E94D30764E670E00E9443074497C6
:1009500024F4B601CE010E94DC0210E000E0F601B2
:1009600080819181081719070CF170E060E090E038
:1009700080E00E946F010E944301F7018081918114
:100980000E94C3010E943D06FFEF21EE84E0F1507A
:1009900020408040E1F700C00000DF91CF911F911F
:1009A0000F91FF90EF90DF90CF9008954091560106
:1009B0005091570160915801709159019701CE01F2
:1009C0000E946A026A817B81888199810E946F01FD
:1009D0000F5F1F4F2496C3CF29986623A9F02B9A47
:1009E00027E030E090E0AC01022E02C0559547951B
:1009F0000A94E2F740FF0AC02C9A2D9A2D982150B4
:100A0000310988F7299A08952B98EACF2C98F5CFC9
:100A100060E00C94EC04CF93DF93219A229A239AFE
:100A2000249A259A2A9A299A8FE39CE90197F1F74B
:100A300000C000002A989FEF2AE683E091502040F2
:100A40008040E1F700C000002A9A299881E20E94C4
:100A5000080583E10E94080586E00E94080582ECF3
:100A60000E94080580E20E94080589E00E940805AE
:100A700080E80E94080580E40E940805C8EFD1E0E4
:100A800061E080E00E94EC042197D1F788E00E94A9
:100A900008058CE0DF91CF910C94080580E80E9456
:100AA000080580E40E9408051092920310929303B7
:100AB000EAE9F1E088EF91E0DF019C011D9221500D
:100AC0003040E1F70895811103C084E20C940805D9
:100AD00080E2FCCF962F969596959695E82FF0E0BC
:100AE00084E5989FE00DF11D1124E656FE4F20810C
:100AF000677081E090E001C0880F6A95EAF74423AF
:100B000019F0282B2083089580952823FBCF8F92FE
:100B10009F92AF92BF92DF92EF92FF920F931F933B
:100B2000CF93DF9300D000D00F92CDB7DEB7E82F80
:100B3000F62E80320CF44DC0E05285E0E802B001A0
:100B4000112468597F4F45E050E0CE0101960E9484
:100B5000E3078E010F5F1F4F95E0F99E50011124AE
:100B600087E0F89E40011124E12CEA141B040CF4E8
:100B700063C0809192038F5F9F2D990F990F9F0DF6
:100B8000890F80939203843558F0809193031092DB
:100B900092038F5F97E0F99E800D11248093930359
:100BA00080919303803320F010929203109293036C
:100BB0000F900F900F900F900F90DF91CF911F919A
:100BC0000F91FF90EF90DF90BF90AF909F908F902C
:100BD0000895EE0FFF0BE65AFE4F008111810115BB
:100BE000110509F0B9CF45E050E068E670E0ADCFFF
:100BF000ED0D5E0D8E2D6F2D0E943707D801A80FC9
:100C0000B11D2C9130E08D2D0E94370702C0359523
:100C100027958A95E2F741E020FF40E06E2F852F6F
:100C20000E946A05D394E091930350919203D814E3
:100C30001904F4F2E39499CFD12CF5CFE82F803248
:100C400034F4EE0FFF0BE65AFE4F71836083089574
:100C50001F93CF93DF93162FEC018991811104C06C
:100C6000DF91CF911F910895612F0E948705F5CFE5
:100C700080939203609393030895CF93DF9380E86A
:100C80000E94080580E40E940805CAE9D1E061E0FD
:100C900089910E94EC0483E0C239D807C1F7DF9143
:100CA000CF910895A4E0B0E0E8E5F6E00C942E08BA
:100CB000FC010FB6F8948091940390919503A09154
:100CC0009603B091970389839A83AB83BC830FBE4D
:100CD000309721F080839183A283B38369817A81E5
:100CE0008B819C812496E2E00C944A08CDB7DEB754
:100CF000A6970FB6F894DEBF0FBECDBF0E940B05BE
:100D00000E944E058AB18E718AB990E080E00E94FF
:100D100052066BA37CA38DA39EA3CB010E94D80790
:100D20001AA219A283E090E098A38F8F1E8E1D8EC9
:100D300088E290E09A8B898B8CE190E09C8B8B8B86
:100D400085E191E09E8B8D8B8EE091E0988F8F8B6B
:100D500087E091E09A8F898F80E091E09C8F8B8F64
:100D6000109253011092520187E2E82EF12C95E186
:100D7000C92ED12C23E0A22EB12C01E010E032E0EC
:100D8000832E912CF0925901E0925801D092570194
:100D9000C09256018091520190915301892B11F418
:100DA0000E9446040E947203882311F1833509F4DE
:100DB00047C05CF4813409F448C0843409F44AC063
:100DC00010925301109252010AC08735C9F710934F
:100DD00055010093540110935301009352012FEFDA
:100DE00086E791E0215080409040E1F700C000008C
:100DF0008091520190915301019789F59E01215EE6
:100E00003F4FAE014F5D5F4FBE016F5F7F4FCE0121
:100E100041960E9482048F8D98A1892B01F582E072
:100E200090E090935301809352010E945D0481E011
:100E300090E0A6960FB6F894DEBF0FBECDBF089522
:100E4000B0925501A0925401C6CF90925501809264
:100E50005401C1CF1092550110925401BCCF809122
:100E6000520190915301029709F08CCFDECF991B6C
:100E700079E004C0991F961708F0961B881F7A9591
:100E8000C9F78095089597FB072E16F4009407D0B4
:100E900077FD09D00E94570707FC05D03EF49095D6
:100EA00081959F4F0895709561957F4F0895AA1B76
:100EB000BB1B51E107C0AA1FBB1FA617B70710F045
:100EC000A61BB70B881F991F5A95A9F78095909577
:100ED000BC01CD010895CF92DF92EF92FF92CF93A4
:100EE000DF93CDB7DEB72A970FB6F894DEBF0FBEFB
:100EF000CDBF89879A87A985BA852D913D914D915E
:100F00005C9129833A834B835C83232B242B252BF1
:100F100041F424E239ED4BE557E029833A834B83D2
:100F20005C8369817A818B819C812DE133EF41E083
:100F300050E00E94EC0769017A01A7EAB1E49B0145
:100F4000AC010E940B0869837A838B839C83ACEE8F
:100F5000B4EFA70196010E9419089B01AC01898199
:100F60009A81AB81BC81820F931FA41FB51FB7FF6D
:100F700003C00197A109B048E985FA858083918370
:100F8000A283B3839F772A960FB6F894DEBF0FBE75
:100F9000CDBFDF91CF91FF90EF90DF90CF9008957C
:100FA0000E946B0708958BE291E00E946B07089501
:100FB000B0E0A0E080932B0190932C01A0932D0131
:100FC000B0932E010895FB01DC0102C005900D9243
:100FD00041505040D8F70895052E97FB1EF4009419
:100FE0000E94030857FD07D00E94550807FC03D054
:100FF0004EF40C94030850954095309521953F4F41
:101000004F4F5F4F089590958095709561957F4FF4
:101010008F4F9F4F08950E947708A59F900DB49F12
:10102000900DA49F800D911D11240895B7FF0C947D
:101030000B080E940B08821B930B08952F923F927E
:101040004F925F926F927F928F929F92AF92BF92D8
:10105000CF92DF92EF92FF920F931F93CF93DF9384
:10106000CDB7DEB7CA1BDB0B0FB6F894DEBF0FBEE1
:10107000CDBF09942A88398848885F846E847D842E
:101080008C849B84AA84B984C884DF80EE80FD8030
:101090000C811B81AA81B981CE0FD11D0FB6F894A6
:1010A000DEBF0FBECDBFED010895A1E21A2EAA1B2F
:1010B000BB1BFD010DC0AA1FBB1FEE1FFF1FA21708
:1010C000B307E407F50720F0A21BB30BE40BF50B05
:1010D000661F771F881F991F1A9469F7609570958E
:1010E000809590959B01AC01BD01CF010895A29F11
:1010F000B001B39FC001A39F700D811D1124911DEC
:10110000B29F700D811D1124911D0895F894FFCF99
:10111000404040404040400000000000007F7F0011
:101120000000000000010101010101010507021892
:101130003C66E7663C1818187E99240100000050B0
:1011400072657373696F6E6520756D612074656378
:101150006C610047414D4520004F564552004252B8
:021160004F003E
:00000001FF
