:100000000C9424010C9441010C9441010C94410185
:100010000C9441010C9441010C9441010C94410158
:100020000C9441010C9441010C9441010C94410148
:100030000C9441010C9441010C9441010C94410138
:100040000C9441010C9441010C9441010C94410128
:100050000C9441010C9441010C9441010C94410118
:100060000C9441010C944101000000000000005F6D
:1000700000000007000700147F147F14242A7F2A41
:10008000122313086462364955225000050300000C
:10009000001C2241000041221C0014083E081408E4
:1000A000083E0808005030000008080808080060F2
:1000B00060000020100804023E5149453E00427F86
:1000C000400042615149462141454B311814127F8D
:1000D0001027454545393C4A494930017109050316
:1000E0003649494936064949291E0036360000007E
:1000F0005636000008142241001414141414004150
:100100002214080201510906324979413E7E11113B
:10011000117E7F494949363E414141227F4141227A
:100120001C7F494949417F090909013E4149497AF2
:100130007F0808087F00417F41002040413F017F48
:10014000081422417F404040407F020C027F7F0420
:1001500008107F3E4141413E7F090909063E415159
:10016000215E7F09192946464949493101017F012C
:10017000013F4040403F1F2040201F3F4038403F4C
:100180006314081463070870080761514945430068
:100190007F41410002040810200041417F00040219
:1001A0000102044040404040000102040020545439
:1001B00054787F48444438384444442038444448C0
:1001C0007F3854545418087E0901020C5252523E92
:1001D0007F0804047800447D40002040443D007FB7
:1001E0001028440000417F40007C041804787C08FB
:1001F00004047838444444387C1414140808141453
:10020000187C7C080404084854545420043F44409B
:10021000203C4040207C1C2040201C3C4030403C86
:1002200044281028440C5050503C4464544C440022
:100230000836410000007F00000041360800100829
:10024000081008000000000011241FBECFEFD8E006
:10025000DEBFCDBF11E0A0E0B1E0E4EFF5E102C008
:1002600005900D92A436B107D9F723E0A4E6B1E0DA
:1002700001C01D92A03BB207E1F70E9407080C9451
:10028000F80A0C940000EF92FF920F931F93CF9304
:10029000DF9386E2E82E81E0F82E15E10DE2C7E05B
:1002A000D0E0F701408150E00C2E02C055954795F3
:1002B0000A94E2F74170612F802F8C1B0E94FB068D
:1002C000219778F79FEFE91AF90A1F5F1A3139F77A
:1002D000DF91CF911F910F91FF90EF9008955F9262
:1002E0006F927F928F929F92AF92BF92CF92DF9246
:1002F000EF92FF920F931F93CF93DF936C018B01CB
:10030000D0E0C0E0460187E0E82EF12C5801AC0EA9
:10031000BD1EFE01E15EFE4F3F015C2E500E84E5E6
:100320008816910494F490E3A916B10474F4F301CF
:10033000408150E00E2C02C0559547950A94E2F793
:100340004170652D882D0E94FB06F1E0EF1AF1083F
:100350008FEF881A980A9FEFE916F90601F72196A0
:10036000C730D10579F6DF91CF911F910F91FF90A2
:10037000EF90DF90CF90BF90AF909F908F907F9045
:100380006F905F900895AF92BF92CF92DF92EF92FD
:10039000FF920F931F93CF93DF937C01EB015B01DF
:1003A00087E0A80EB11C670188E0C80ED11C870148
:1003B0000435110544F4C033D1052CF440E06C2F12
:1003C000802F0E94FB060F5F1F4F0C151D0581F744
:1003D0002196CA15DB0559F7DF91CF911F910F9137
:1003E000FF90EF90DF90CF90BF90AF9008958F92E5
:1003F0009F92AF92BF92CF92DF92EF92FF920F93B4
:100400001F93CF93DF937C0190E5992EB12CA12C03
:10041000AE14BF046CF0DF91CF911F910F91FF904C
:10042000EF90DF90CF90BF90AF909F908F90089506
:10043000D0E0C0E082E0882E890C02E010E0CE011E
:10044000845E9E4F6C01F601408150E0002E02C098
:10045000559547950A94E2F741706C2F882D801BC3
:100460000E94FB060150110970F72196C330D10597
:1004700021F79FEFA91AB90AECEF9E0EC9CFEF92B0
:10048000FF920F931F93CF93DF93C4E1D0E0C81B7B
:10049000D90BCC0FDD1FCC0FDD1F00E0FC2EEC2EA6
:1004A00083E0E80E1C2F40E0602F812F0E94FB06A6
:1004B0001F5F1E11F8CF0F5F0330A1F740E064E02B
:1004C00084E08F0DDF91CF911F910F91FF90EF90FE
:1004D0000C94FB0668E28AE00E94C90761E083E3AE
:1004E00091E00E94B9078091680161E0805D0C9401
:1004F00018070F931F93CF93DF938C01EB01888133
:1005000099810497D4F40E94450A9C0164E070E04C
:100510000E94F7088230910509F450C0833091059C
:1005200009F467C023703327232B61F0019739F159
:1005300088819981019699838883DF91CF911F915A
:100540000F9108950E94450AE881F981B3E0EE0F0A
:10055000FF1FBA95E1F7E00FF11F6FE470E00E9412
:10056000F70891838083E881F98183E0EE0FFF1F14
:100570008A95E1F7E00FF11F13821282D9CF0E9412
:10058000450AE881F98173E0EE0FFF1F7A95E1F7E4
:10059000E00FF11F6FE470E00E94F7089183808301
:1005A000E881F981A3E0EE0FFF1FAA95E1F7E00FC4
:1005B000F11F8BE290E093838283BACFE881F981C7
:1005C00053E0EE0FFF1F5A95E1F7E00FF11F118284
:1005D00010820E94450AE881F98163E0EE0FFF1F57
:1005E0006A95E1F7E00FF11F6BE270E00E94F708F7
:1005F000E2CFE881F98183E0EE0FFF1F8A95E1F7F2
:10060000E00FF11F8FE490E0918380830E94450A00
:100610002881398143E0220F331F4A95E1F7020F09
:10062000131F6BE270E00E94F708F801C4CF4D9BE6
:100630000BC02FEF80E792E0215080409040E1F71F
:1006400000C0000087E508954C9B0BC02FEF80E7AA
:1006500092E0215080409040E1F700C0000083E527
:1006600008954E9B0BC02FEF80E792E02150804011
:100670009040E1F700C0000081E408954F9B0BC05B
:100680002FEF80E792E0215080409040E1F700C0DA
:10069000000084E408954B9B0BC02FEF80E792E0AD
:1006A000215080409040E1F700C0000082E50895AD
:1006B00080E00895AF92BF92CF92DF92EF92FF92C7
:1006C0000F931F93CF93DF935C01F12CE12C86E015
:1006D000C82ED12C10E000E0F50124813581F1E035
:1006E0002E303F0721F081E02730380771F52E0DBD
:1006F0003F1DF901C081D0E0C601801B910B02C0F3
:10070000D595C7958A95E2F7C170DD27F50162811D
:100710006E0D80814C2F800F0E94FB060F5F1F4FD4
:1007200007301105C9F6FFEFEF1AFF0A87E0E81658
:10073000F10481F6DF91CF911F910F91FF90EF901F
:10074000DF90CF90BF90AF900895F1E020303F0749
:1007500021F081E025313807C9F62E0D3F1DF90142
:10076000C081D0E0002E02C0D595C7950A94E2F76B
:10077000CBCF0F931F93CF93DF938C01D0E0C0E0DA
:10078000F80162816D0F808140E08C0F0E94FB06B2
:10079000CF5FC730A9F7DF5FD73089F7DF91CF91FF
:1007A0001F910F9108950F931F93CF93DF93EC0147
:1007B0008B010E94B9030230110581F16CF401151F
:1007C0001105A1F001301105F1F0CE01DF91CF91BB
:1007D0001F910F910C945A0303301105B1F787E272
:1007E00090E09983888388E190E013C08AE290E0EA
:1007F0009983888385E190E09B838A838A859B85A2
:100800009D838C83E2CF87E290E0998388838CE09C
:1008100090E09B838A8388859985F2CF8EE190E072
:10082000E7CFCF93DF93DC01EA01E881F9812A81E8
:100830003B8180916601909167018230910551F072
:100840003CF4009791F0019729F090E080E01EC001
:100850000397D9F7AE17BF07C4F33696EA17FB071D
:10086000A4F3621773078CF30AC0AE17BF0774F0C6
:100870003696EA17FB0754F0621773073CF02A5FBD
:100880003F4F81E090E026173707FCF2DF91CF91D0
:1008900008956F927F928F929F92AF92BF92CF9264
:1008A000DF92EF92FF920F931F93CF93DF93EC01B0
:1008B0006B017A0139016A817B81888199810E946B
:1008C000C301888199818C159D050CF096C0019615
:1008D000998388838A819B818E159F050CF093C034
:1008E00001969B838A83AA80BB8088809980A80117
:1008F000B501C4010E941104892B09F48AC08C142B
:100900009D048CF0C60104968815990564F0AE1418
:10091000BF044CF0C70104968A159B0524F081E0C2
:1009200090E09D838C83AA80BB8088809980A801F9
:10093000B501C4010E941104892B29F18C149D0476
:1009400014F1F4E0CF0ED11CC814D904E4F0AE14B5
:10095000BF04CCF024E0E20EF11CEA14FB049CF08E
:1009600081E090E09D838C832E813F81232B59F47D
:100970009F838E8380916801909169010196909385
:1009800069018093680180916E0190916F01A0913F
:100990007001B091710180319742A105B105F0F06D
:1009A00010926E0110926F011092700110927101FD
:1009B0002DEC3CEC4CEC5DE360912B0170912C0133
:1009C00080912D0190912E010E94200960932B01AE
:1009D00070932C0180932D0190932E01DF91CF9184
:1009E0001F910F91FF90EF90DF90CF90BF90AF904D
:1009F0009F908F907F906F900895C816D9060CF045
:100A000069CF019765CFE816F9060CF06CCF019716
:100A100068CF8C149D040CF486CFC601049688150B
:100A200099050CF480CFAE14BF040CF47CCFC70141
:100A300004968A159B050CF476CFD3018D919C9179
:100A4000119701978D939C930E94450A6FE470E083
:100A50000E94F708998388830E94450A6BE270E040
:100A60000E94F7089B838A83F301808191810E9411
:100A70003F0259CF0E94DF066AE08AE00E94C90760
:100A800061E080E491E00E94B9070E94CE072FEF59
:100A900086E791E0215080409040E1F700C00000DF
:100AA00008950E94DF0664E18FE00E94C90761E0BB
:100AB00084E591E00E94B90761E08AE591E00E9437
:100AC000B9070E946A026EE182E20E94C90761E0F2
:100AD0008FE591E00E94B9070E94CE072FEF87EAC9
:100AE00091E6215080409040E1F700C00000089559
:100AF0006F927F928F929F92AF92BF92CF92DF922E
:100B0000EF92FF920F931F93CF93DF937C016B01C2
:100B1000EA0139010E94DF06609166017091670168
:100B2000C7010E94D303C7010E945A036091660166
:100B300070916701C7010E94D3030E94450A62E3D6
:100B400070E00E94F708449724F4BE01C6010E9499
:100B500079025601912C812C8881998188169906F9
:100B60007CF130E020E088819981281739070CF466
:100B700042C070E060E090E080E00E946F010E945F
:100B80004301F301808191810E94F7010E94CE0709
:100B9000FFEF25EA8EE0F15020408040E1F700C0F1
:100BA0000000DF91CF911F910F91FF90EF90DF90A8
:100BB000CF90BF90AF909F908F907F906F9008954F
:100BC00040916A0150916B0160916C0170916D01CF
:100BD00087019301C5010E944904F5016281738177
:100BE000808191810E946F01FFEF8F1A9F0A28E098
:100BF000A20EB11CB1CFC90143E0880F991F4A95DD
:100C0000E1F78C0D9D1DFC0144815581B901452BF7
:100C100071F42F5F3F4FA7CF48E0FC013896DC010D
:100C200001900D924A95E1F76F5F7F4F08964881DA
:100C30005981415051096417750774F359834883EA
:100C400021503109E6CFCF92DF92EF92FF920F93BE
:100C50001F93CF93DF93FC01DA011D921C9283E076
:100C600090E0D9018D939C9388E290E091838083FA
:100C70008CE190E093838283109267011092660169
:100C80001092690110926801EB018B01005E1F4F09
:100C90008FE4C82ED12C9BE2E92EF12C0E94450A4C
:100CA000B6010E94F708998388830E94450AB7011C
:100CB0000E94F7089B838A831D821C822896C01796
:100CC000D10761F7DF91CF911F910F91FF90EF90C6
:100CD000DF90CF900895E1E8F0E080818B60808321
:100CE0008FEF94EA9093890080938800EFE6F0E01C
:100CF0008081826080837894089529986623A9F082
:100D00002B9A27E030E090E0AC01022E02C055950E
:100D100047950A94E2F740FF0AC02C9A2D9A2D9825
:100D20002150310988F7299A08952B98EACF2C98F9
:100D3000F5CF60E00C947D06CF93DF93219A229A41
:100D4000239A249A259A2A9A299A8FE39CE9019753
:100D5000F1F700C000002A989FEF2AE683E0915047
:100D600020408040E1F700C000002A9A299881E2E3
:100D70000E94990683E10E94990686E00E949906E6
:100D800082EC0E94990680E20E94990689E00E9406
:100D9000990680E80E94990680E40E949906C8EFAF
:100DA000D1E061E080E00E947D062197D1F788E0E4
:100DB0000E9499068CE0DF91CF910C94990680E80F
:100DC0000E94990680E40E9499061092AA0310924C
:100DD000AB03E2EBF1E088EF91E0DF019C011D92B3
:100DE00021503040E1F70895811103C084E20C9452
:100DF000990680E2FCCF962F969596959695E82FCA
:100E0000F0E084E5989FE00DF11D1124EE54FE4FB3
:100E10002081677081E090E001C0880F6A95EAF751
:100E2000442319F0282B2083089580952823FBCF95
:100E30008F929F92AF92BF92DF92EF92FF920F93A9
:100E40001F93CF93DF9300D000D00F92CDB7DEB7C2
:100E5000E82FF62E80320CF44DC0E05285E0E80217
:100E6000B001112468597F4F45E050E0CE01019652
:100E70000E94550A8E010F5F1F4F95E0F99E5001A9
:100E8000112487E0F89E40011124E12CEA141B0490
:100E90000CF463C08091AA038F5F9F2D990F990F67
:100EA0009F0D890F8093AA03843558F08091AB037E
:100EB0001092AA038F5F97E0F99E800D1124809312
:100EC000AB038091AB03803320F01092AA03109201
:100ED000AB030F900F900F900F900F90DF91CF9179
:100EE0001F910F91FF90EF90DF90BF90AF909F9078
:100EF0008F900895EE0FFF0BEE58FE4F0081118189
:100F00000115110509F0B9CF45E050E068E670E041
:100F1000ADCFED0D5E0D8E2D6F2D0E94EB08D8012B
:100F2000A80FB11D2C9130E08D2D0E94EB0802C05E
:100F3000359527958A95E2F741E020FF40E06E2F36
:100F4000852F0E94FB06D394E091AB035091AA0336
:100F5000D8141904F4F2E39499CFD12CF5CFE82FEB
:100F6000803234F4EE0FFF0BEE58FE4F7183608336
:100F700008951F93CF93DF93162FEC018991811170
:100F800004C0DF91CF911F910895612F0E9418072F
:100F9000F5CF8093AA036093AB030895CF93DF93BB
:100FA00080E80E94990680E40E949906C2EBD1E095
:100FB00061E089910E947D0683E0CA3AD807C1F7B3
:100FC000DF91CF910895A4E0B0E0E9EEF7E00C9452
:100FD000A00AFC010FB6F8948091AC039091AD0388
:100FE000A091AE03B091AF0389839A83AB83BC8396
:100FF0000FBE309721F080839183A283B3836981F0
:101000007A818B819C812496E2E00C94BC0ACDB756
:10101000DEB7E6970FB6F894DEBF0FBECDBF0E94D5
:101020009C060E94DF068AB18F708AB990E080E04A
:101030000E94E3076BAB7CAB8DAB9EABCB010E94F8
:101040004A0A0E946B061AAA19AA83E090E098AB9C
:101050008FA71EA61DA688E290E09AA389A38CE123
:1010600090E09CA38BA385E191E09EA38DA38EE0ED
:1010700091E098A78FA387E091E09AA789A780E0E5
:1010800091E09CA78BA7109265011092640127E262
:10109000E22EF12C33E0C32ED12C01E010E085E1EB
:1010A000A82EB12C92E0892E912CF0926D01E09245
:1010B0006C01B0926B01A0926A01809164019091E1
:1010C0006501892B11F40E943A050E9417038823B9
:1010D00079F1833509F468C0C4F4813409F469C036
:1010E000843409F46BC09E01215D3F4FAE014F5C1B
:1010F0005F4FBE016F5F7F4FCE0181960E94230636
:1011000010926501109264010AC0873561F710934F
:1011100067010093660110936501009364012FEF4E
:1011200086E791E0215080409040E1F700C0000048
:101130008091640190916501019709F044C09E017E
:10114000215D3F4FAE014F5C5F4FBE016F5F7F4F30
:10115000CE0181960E9478058FA598A918161906C8
:1011600094F182E090E090936501809364010E9485
:1011700051059E01215D3F4FAE014F5C5F4FBE01A7
:101180006F5F7F4FCE0181960E942306109265010A
:10119000109264012FEF86E791E02150804090404B
:1011A000E1F700C000007BCFD0926701C0926601DA
:1011B000B2CF9092670180926601ADCF1092670125
:1011C00010926601A8CF8091640190916501029709
:1011D00009F06BCFCCCF991B79E004C0991F96170B
:1011E00008F0961B881F7A95C9F78095089597FB9C
:1011F000072E16F4009407D077FD09D00E940B0942
:1012000007FC05D03EF4909581959F4F0895709509
:1012100061957F4F0895AA1BBB1B51E107C0AA1F10
:10122000BB1FA617B70710F0A61BB70B881F991F87
:101230005A95A9F780959095BC01CD010895505815
:10124000BB27AA270E9437090C94A3090E9495097D
:1012500038F00E949C0920F039F49F3F19F426F4DD
:101260000C9492090EF4E095E7FB0C948C09E92F9D
:101270000E94B40958F3BA176207730784079507E9
:1012800020F079F4A6F50C94D6090EF4E0950B2E17
:10129000BA2FA02D0B01B90190010C01CA01A001C8
:1012A0001124FF27591B99F0593F50F4503E68F123
:1012B0001A16F040A22F232F342F4427585FF3CF64
:1012C000469537952795A795F0405395C9F77EF435
:1012D0001F16BA0B620B730B840BBAF09150A1F07E
:1012E000FF0FBB1F661F771F881FC2F70EC0BA0F04
:1012F000621F731F841F48F4879577956795B7958C
:10130000F7959E3F08F0B0CF9395880F08F0992786
:10131000EE0F97958795089597F99F6780E870E09D
:1013200060E008959FEF80EC089500240A9416165B
:10133000170618060906089500240A9412161306C3
:10134000140605060895092E0394000C11F4882351
:1013500052F0BB0F40F4BF2B11F460FF04C06F5F6D
:101360007F4F8F4F9F4F089557FD9058440F551F43
:1013700059F05F3F71F04795880F97FB991F61F017
:101380009F3F79F087950895121613061406551F8E
:10139000F2CF4695F1DF08C0161617061806991FFA
:1013A000F1CF86957105610508940895E894BB27EF
:1013B00066277727CB0197F90895CF92DF92EF92B6
:1013C000FF92CF93DF93CDB7DEB72A970FB6F8948D
:1013D000DEBF0FBECDBF89879A87A985BA852D91BB
:1013E0003D914D915C9129833A834B835C83232B00
:1013F000242B252B41F424E239ED4BE557E02983DA
:101400003A834B835C8369817A818B819C812DE156
:1014100033EF41E050E00E945E0A69017A01A7EAD9
:10142000B1E49B01AC010E947D0A69837A838B83BE
:101430009C83ACEEB4EFA70196010E948B0A9B013E
:10144000AC0189819A81AB81BC81820F931FA41F5B
:10145000B51FB7FF03C00197A109B048E985FA8518
:1014600080839183A283B3839F772A960FB6F894E3
:10147000DEBF0FBECDBFDF91CF91FF90EF90DF9029
:10148000CF9008950E94DD0908958FE291E00E94B7
:10149000DD090895B0E0A0E080932F019093300122
:1014A000A0933101B09332010895FB01DC0102C029
:1014B00005900D9241505040D8F70895052E97FBA6
:1014C0001EF400940E94750A57FD07D00E94C70AB7
:1014D00007FC03D04EF40C94750A50954095309556
:1014E00021953F4F4F4F5F4F089590958095709590
:1014F00061957F4F8F4F9F4F08950E94E90AA59FE6
:10150000900DB49F900DA49F800D911D11240895FE
:10151000B7FF0C947D0A0E947D0A821B930B0895ED
:101520002F923F924F925F926F927F928F929F92F3
:10153000AF92BF92CF92DF92EF92FF920F931F93E1
:10154000CF93DF93CDB7DEB7CA1BDB0B0FB6F89492
:10155000DEBF0FBECDBF09942A88398848885F84D2
:101560006E847D848C849B84AA84B984C884DF8043
:10157000EE80FD800C811B81AA81B981CE0FD11D27
:101580000FB6F894DEBF0FBECDBFED010895A1E206
:101590001A2EAA1BBB1BFD010DC0AA1FBB1FEE1FED
:1015A000FF1FA217B307E407F50720F0A21BB30B38
:1015B000E40BF50B661F771F881F991F1A9469F7B4
:1015C00060957095809590959B01AC01BD01CF0110
:1015D0000895A29FB001B39FC001A39F700D811D0C
:1015E0001124911DB29F700D811D1124911D08952C
:0415F000F894FFCF9D
:1015F400404040404040400000000000007F7F0029
:1016040000000000000101010101010105070218A9
:101614003C66E7663C1818187E99240000803F0158
:10162400000000446566656E6469646F733A200067
:101634005072657373696F6E6520756D6120746592
:10164400636C610047414D4520004F5645520042AE
:04165400524F0000F1
:00000001FF
