:100000000C9424010C9441010C9441010C94410185
:100010000C9441010C9441010C9441010C94410158
:100020000C9441010C9441010C9441010C94410148
:100030000C9441010C9441010C9441010C94410138
:100040000C9441010C9441010C9441010C94410128
:100050000C9441010C9441010C9441010C94410118
:100060000C9441010C944101000000000000005F6D
:1000700000000007000700147F147F14242A7F2A41
:10008000122313086462364955225000050300000C
:10009000001C2241000041221C0014083E081408E4
:1000A000083E0808005030000008080808080060F2
:1000B00060000020100804023E5149453E00427F86
:1000C000400042615149462141454B311814127F8D
:1000D0001027454545393C4A494930017109050316
:1000E0003649494936064949291E0036360000007E
:1000F0005636000008142241001414141414004150
:100100002214080201510906324979413E7E11113B
:10011000117E7F494949363E414141227F4141227A
:100120001C7F494949417F090909013E4149497AF2
:100130007F0808087F00417F41002040413F017F48
:10014000081422417F404040407F020C027F7F0420
:1001500008107F3E4141413E7F090909063E415159
:10016000215E7F09192946464949493101017F012C
:10017000013F4040403F1F2040201F3F4038403F4C
:100180006314081463070870080761514945430068
:100190007F41410002040810200041417F00040219
:1001A0000102044040404040000102040020545439
:1001B00054787F48444438384444442038444448C0
:1001C0007F3854545418087E0901020C5252523E92
:1001D0007F0804047800447D40002040443D007FB7
:1001E0001028440000417F40007C041804787C08FB
:1001F00004047838444444387C1414140808141453
:10020000187C7C080404084854545420043F44409B
:10021000203C4040207C1C2040201C3C4030403C86
:1002200044281028440C5050503C4464544C440022
:100230000836410000007F00000041360800100829
:10024000081008000000000011241FBECFEFD8E006
:10025000DEBFCDBF11E0A0E0B1E0E4EFFEE002C000
:1002600005900D92A634B107D9F723E0A6E4B1E0DA
:1002700001C01D92A638B207E1F70E943A050C941E
:1002800078070C940000EF92FF920F931F93CF9387
:10029000DF9386E2E82E81E0F82E15E10DE2C7E05B
:1002A000D0E0F701408150E00C2E02C055954795F3
:1002B0000A94E2F74170612F802F8C1B0E942E045C
:1002C000219778F79FEFE91AF90A1F5F1A3139F77A
:1002D000DF91CF911F910F91FF90EF9008955F9262
:1002E0006F927F928F929F92AF92BF92CF92DF9246
:1002F000EF92FF920F931F93CF93DF936C018B01CB
:10030000D0E0C0E0460187E0E82EF12C5801AC0EA9
:10031000BD1EFE01E15EFE4F3F015C2E500E84E5E6
:100320008816910494F490E3A916B10474F4F301CF
:10033000408150E00E2C02C0559547950A94E2F793
:100340004170652D882D0E942E04F1E0EF1AF1080E
:100350008FEF881A980A9FEFE916F90601F72196A0
:10036000C730D10579F6DF91CF911F910F91FF90A2
:10037000EF90DF90CF90BF90AF909F908F907F9045
:100380006F905F9008958F929F92AF92BF92CF929D
:10039000DF92EF92FF920F931F93CF93DF937C0135
:1003A00090E5992EB12CA12CAE14BF046CF0DF9116
:1003B000CF911F910F91FF90EF90DF90CF90BF9062
:1003C000AF909F908F900895D0E0C0E082E0882E9B
:1003D000890C02E010E0CE01845E9E4F6C01F601B4
:1003E000408150E0002E02C0559547950A94E2F7EF
:1003F00041706C2F882D801B0E942E040150110922
:1004000070F72196C330D10521F79FEFA91AB90AD9
:10041000ECEF9E0EC9CFEF92FF920F931F93CF93F5
:10042000DF93C4E1D0E0C81BD90BCC0FDD1FCC0F8C
:10043000DD1F00E0FC2EEC2E83E0E80E1C2F40E0D8
:10044000602F812F0E942E041F5F1E11F8CF0F5FB7
:100450000330A1F740E064E084E08F0DDF91CF919D
:100460001F910F91FF90EF900C942E04AF92BF92CA
:10047000CF92DF92EF92FF920F931F93CF93DF9370
:100480007C01EB015B0187E0A80EB11C670188E0ED
:10049000C80ED11C87010435110544F4C033D105C1
:1004A0002CF440E06C2F802F0E942E040F5F1F4F12
:1004B0000C151D0581F72196CA15DB0559F7DF914B
:1004C000CF911F910F91FF90EF90DF90CF90BF9051
:1004D000AF900895CF92DF92EF92FF920F931F9308
:1004E000CF93DF93EC017B018A0169016A817B81F3
:1004F000888199810E943602888199818E159F0595
:100500000CF04EC00196998388838A819B81801765
:1005100091070CF04BC001969B838A838881998157
:100520008E159F055CF124E0E20EF11CE816F90639
:100530002CF18A819B818017910704F10C5F1F4F7A
:1005400008171907DCF0F6018081918101979183EA
:1005500080830E94C5066FE470E00E94350699838F
:1005600088830E94C5066BE270E00E9435069B837B
:100570008A83F601808191810E940B02FFEF26E7BA
:1005800081E0F15020408040E1F700C00000DF91A1
:10059000CF911F910F91FF90EF90DF90CF90089532
:1005A000E816F9060CF0B1CF0197ADCF081719077F
:1005B0000CF0B4CF0197B0CF0F931F93CF93DF937D
:1005C0008C01EB01888199810497D4F40E94C506BF
:1005D0009C0164E070E00E9435068230910509F4C8
:1005E0004CC08330910509F461C023703327232B5D
:1005F00061F0019729F18881998101969983888317
:10060000DF91CF911F910F9108950E94C506E88157
:10061000F981EE0FFF1FEE0FFF1FE00FF11F6FE4D8
:1006200070E00E94350691838083E881F981EE0FA6
:10063000FF1FEE0FFF1FE00FF11F13821282DBCFAF
:100640000E94C506E881F981EE0FFF1FEE0FFF1F24
:10065000E00FF11F6FE470E00E9435069183808304
:10066000E881F981EE0FFF1FEE0FFF1FE00FF11F72
:100670008BE290E093838283BECFE881F981EE0F15
:10068000FF1FEE0FFF1FE00FF11F118210820E946B
:10069000C506E881F981EE0FFF1FEE0FFF1FE00F87
:1006A000F11F6BE270E00E943506E4CFE881F9812A
:1006B000EE0FFF1FEE0FFF1FE00FF11F8FE490E022
:1006C000918380830E94C50628813981220F331FC0
:1006D000220F331F020F131F6BE270E00E943506DA
:1006E000F801C8CF4D9B08C0489B13C04E9B1EC04D
:1006F0004F9B29C080E008952FEF80E792E02150C2
:1007000080409040E1F700C000004D99EDCF87E5B3
:1007100008952FEF80E792E0215080409040E1F76C
:1007200000C000004899E2CF83E508952FEF80E7ED
:1007300092E0215080409040E1F700C000004E99C7
:10074000D7CF81E408952FEF80E792E021508040D9
:100750009040E1F700C000004F99CCCF84E40895A9
:1007600029986623A9F02B9A27E030E090E0AC01AD
:10077000022E02C0559547950A94E2F740FF0AC041
:100780002C9A2D9A2D982150310988F7299A08958D
:100790002B98EACF2C98F5CF60E00C94B003CF9360
:1007A000DF93219A229A239A249A259A2A9A299A9F
:1007B0008FE39CE90197F1F700C000002A989FEFB2
:1007C0002AE683E0915020408040E1F700C000001D
:1007D0002A9A299881E20E94CC0383E10E94CC03EB
:1007E00086E00E94CC0382EC0E94CC0380E20E944F
:1007F000CC0389E00E94CC0380E80E94CC0380E413
:100800000E94CC03C8EFD1E061E080E00E94B00319
:100810002197D1F788E00E94CC038CE0DF91CF9143
:100820000C94CC0380E80E94CC0380E40E94CC03AB
:100830001092800310928103E8E8F1E088EF91E0E4
:10084000DF019C011D9221503040E1F70895811194
:1008500003C084E20C94CC0380E2FCCF962F9695E3
:1008600096959695E82FF0E084E5989FE00DF11DB0
:100870001124E857FE4F2081677081E090E001C0AD
:10088000880F6A95EAF7442319F0282B20830895EE
:1008900080952823FBCF8F929F92AF92BF92DF92D9
:1008A000EF92FF920F931F93CF93DF9300D000D06E
:1008B0000F92CDB7DEB7E82FF62E80320CF44DC084
:1008C000E05285E0E802B001112468597F4F45E00D
:1008D00050E0CE0101960E94D5068E010F5F1F4F9A
:1008E00095E0F99E5001112487E0F89E4001112403
:1008F000E12CEA141B040CF463C0809180038F5F29
:100900009F2D990F990F9F0D890F80938003843538
:1009100058F080918103109280038F5F97E0F99ED9
:10092000800D11248093810380918103803320F016
:1009300010928003109281030F900F900F900F90F0
:100940000F90DF91CF911F910F91FF90EF90DF906B
:10095000BF90AF909F908F900895EE0FFF0BE85BD4
:10096000FE4F008111810115110509F0B9CF45E055
:1009700050E068E670E0ADCFED0D5E0D8E2D6F2D71
:100980000E942906D801A80FB11D2C9130E08D2DB1
:100990000E94290602C0359527958A95E2F741E025
:1009A00020FF40E06E2F852F0E942E04D394E0910B
:1009B000810350918003D8141904F4F2E39499CF81
:1009C000D12CF5CFE82F803234F4EE0FFF0BE85B2B
:1009D000FE4F7183608308951F93CF93DF93162F8B
:1009E000EC018991811104C0DF91CF911F9108958D
:1009F000612F0E944B04F5CF8093800360938103A5
:100A00000895CF93DF9380E80E94CC0380E40E9496
:100A1000CC03C8E8D1E061E089910E94B00383E093
:100A2000C038D807C1F7DF91CF910895A4E0B0E0B6
:100A3000ECE1F5E00C942007FC010FB6F8948091EE
:100A4000820390918303A0918403B09185038983ED
:100A50009A83AB83BC830FBE309721F08083918350
:100A6000A283B38369817A818B819C812496E2E0A1
:100A70000C943C07CDB7DEB768970FB6F894DEBF8D
:100A80000FBECDBF0E94CF030E9412048AB18E71A7
:100A90008AB990E080E00E9416056D8B7E8B8F8B6B
:100AA000988FCB010E94CA061C8A1B8A83E090E0C3
:100AB0009A8B898B05E111E023E0422E512C6624AC
:100AC0006394712C42E0C42ED12C5EE2352E64E694
:100AD000A62EB12C0E947203882359F0833509F4A5
:100AE00077C00CF06DC0813409F477C0843409F408
:100AF00079C080914601909147018230910509F4B7
:100B00007CC00CF074C0009709F47AC0019711F40E
:100B10000EE011E048019CE1292E86E0E82EF12C40
:100B2000F401408150E00E2C02C0559547950A947F
:100B3000E2F74170622D832D8E190E942E04F1E0A0
:100B4000EF1AF10868F78FEF881A980A239493E256
:100B50002912E3CF0E94C506B5010E9435064497CD
:100B60003CF4BE016D5E7F4FCE0101960E94DC0217
:100B7000FE0131967F01912C812C8B899C898816EE
:100B800099060CF440C070E060E090E080E00E94C4
:100B90006F010E944301E988FA88C7010E94C301DE
:100BA0000E940105E114F10409F445C08FEF91EEB4
:100BB000E4E081509040E040E1F700C000008ACFBF
:100BC000873509F096CF709247016092460191CF28
:100BD00050924701409246018CCFD0924701C0927B
:100BE000460187CF109247011092460182CF0397AA
:100BF00009F090CF07E011E08DCF00E011E08ACF3F
:100C000005E111E087CF9E012F5E3F4F45E150E0A7
:100C100067E270E0C7010E946A02F7016281738196
:100C2000808191810E946F01FFEF8F1A9F0A24E05B
:100C3000E20EF11CA2CF61E08FE291E00E94EC0491
:100C400081E090E068960FB6F894DEBF0FBECDBF8E
:100C50000895991B79E004C0991F961708F0961B18
:100C6000881F7A95C9F78095089597FB072E16F48B
:100C7000009407D077FD09D00E94490607FC05D0F3
:100C80003EF4909581959F4F0895709561957F4FA3
:100C90000895AA1BBB1B51E107C0AA1FBB1FA617C3
:100CA000B70710F0A61BB70B881F991F5A95A9F715
:100CB00080959095BC01CD010895CF92DF92EF927F
:100CC000FF92CF93DF93CDB7DEB72A970FB6F89494
:100CD000DEBF0FBECDBF89879A87A985BA852D91C2
:100CE0003D914D915C9129833A834B835C83232B07
:100CF000242B252B41F424E239ED4BE557E02983E1
:100D00003A834B835C8369817A818B819C812DE15D
:100D100033EF41E050E00E94DE0669017A01A7EA64
:100D2000B1E49B01AC010E94FD0669837A838B8349
:100D30009C83ACEEB4EFA70196010E940B079B01C8
:100D4000AC0189819A81AB81BC81820F931FA41F62
:100D5000B51FB7FF03C00197A109B048E985FA851F
:100D600080839183A283B3839F772A960FB6F894EA
:100D7000DEBF0FBECDBFDF91CF91FF90EF90DF9030
:100D8000CF9008950E945D0608958BE291E00E9445
:100D90005D060895B0E0A0E080932B0190932C01B4
:100DA000A0932D01B0932E010895FB01DC0102C038
:100DB00005900D9241505040D8F70895052E97FBAD
:100DC0001EF400940E94F50657FD07D00E944707C5
:100DD00007FC03D04EF40C94F506509540953095E1
:100DE00021953F4F4F4F5F4F089590958095709597
:100DF00061957F4F8F4F9F4F08950E946907A59F70
:100E0000900DB49F900DA49F800D911D1124089505
:100E1000B7FF0C94FD060E94FD06821B930B0895FC
:100E20002F923F924F925F926F927F928F929F92FA
:100E3000AF92BF92CF92DF92EF92FF920F931F93E8
:100E4000CF93DF93CDB7DEB7CA1BDB0B0FB6F89499
:100E5000DEBF0FBECDBF09942A88398848885F84D9
:100E60006E847D848C849B84AA84B984C884DF804A
:100E7000EE80FD800C811B81AA81B981CE0FD11D2E
:100E80000FB6F894DEBF0FBECDBFED010895A1E20D
:100E90001A2EAA1BBB1BFD010DC0AA1FBB1FEE1FF4
:100EA000FF1FA217B307E407F50720F0A21BB30B3F
:100EB000E40BF50B661F771F881F991F1A9469F7BB
:100EC00060957095809590959B01AC01BD01CF0117
:100ED0000895A29FB001B39FC001A39F700D811D13
:100EE0001124911DB29F700D811D1124911D089533
:040EF000F894FFCFA4
:100EF400404040404040400000000000007F7F0030
:100F040000000000000101010101010105070218B0
:100F14003C66E7663C1818187E99240100000041DD
:100F24004341424F552042524F5448455220444574
:060F34005349535445002F
:00000001FF
